:020000040800F2
:10000000005000207D0A0008CD0A0008CD0A000833
:10001000CD0A0008CD0A0008CD0A00080000000043
:10002000000000000000000000000000CD0A0008F1
:10003000CD0A000800000000CD0A0008F107000802
:10004000CD0A0008CD0A0008CD0A0008CD0A000834
:10005000CD0A0008CD0A0008450200087102000818
:100060009D020008C9020008F5020008CD0A000838
:10007000CD0A0008CD0A0008CD0A0008CD0A000804
:10008000CD0A0008CD0A0008CD0A0008CD0A0008F4
:10009000CD0A0008CD0A0008CD0A00082103000897
:1000A000CD0A0008CD0A0008CD0A0008CD0A0008D4
:1000B000CD0A0008CD0A0008CD0A0008CD0A0008C4
:1000C000CD0A0008CD0A0008CD0A0008CD0A0008B4
:1000D000CD0A0008CD0A0008CD0A0008CD0A0008A4
:1000E0008D030008CD0A000800000000CD0A0008BA
:1000F000CD0A0008CD0A0008CD0A0008CD0A000884
:10010000CD0A0008CD0A0008CD0A0008CD0A000873
:10011000CD0A0008CD0A0008CD0A0008CD0A000863
:10012000CD0A0008CD0A0008CD0A0008CD0A000853
:1001300010B5054C237833B9044B13B10448AFF321
:1001400000800123237010BD00000020000000008B
:10015000180B000808B5034B1BB103490348AFF364
:10016000008008BD0000000004000020180B0008FB
:1001700080B500AF02220E21022000F03DF90222DC
:100180000F21022000F038F902220D21022000F098
:1001900033F902220221002000F02EF9022201216F
:1001A000002000F029F90E2000F00EF80F2000F0DA
:1001B0000BF80D2000F008F8022000F005F80120EF
:1001C00000F002F800BF80BD80B582B000AF0346EA
:1001D000FB71FB79013B0E2B2ED801A252F823F0C4
:1001E0002B0200082B02000839020008390200081F
:1001F00039020008390200083902000839020008F3
:1002000039020008390200083902000839020008E2
:100210001D0200081D0200081D020008FB790022D3
:100220001946022000F0B6F907E0FB7900221946D2
:10023000002000F0AFF900E000BF00BF0837BD4666
:1002400080BD00BF80B500AF074B1B68002B02D0FC
:10025000054B1B689847054B5B69044A43F0010353
:10026000536100BF80BD00BF40000020000401407A
:1002700080B500AF074B5B68002B02D0054B5B6875
:100280009847054B5B69044A43F00203536100BF82
:1002900080BD00BF400000200004014080B500AFD9
:1002A000074B9B68002B02D0054B9B689847054B7A
:1002B0005B69044A43F00403536100BF80BD00BF83
:1002C000400000200004014080B500AF074BDB6810
:1002D000002B02D0054BDB689847054B5B69044A4D
:1002E00043F00803536100BF80BD00BF4000002001
:1002F0000004014080B500AF074B1B69002B02D002
:10030000054B1B699847054B5B69044A43F0100392
:10031000536100BF80BD00BF4000002000040140C9
:1003200080B582B000AF0523FB7123E0154B5B69FC
:10033000FA79012101FA02F21A40FB7922FA03F359
:10034000012B14D1FB79104A52F82330002B04D032
:10035000FB790D4A52F8233098470A4B5B69FA79CA
:10036000012101FA02F21146064A0B435361FB795F
:100370000133FB71FB79092BD8D900BF0837BD4683
:1003800080BD00BF000401404000002080B582B065
:1003900000AF0A23FB7123E0154B5B69FA79012159
:1003A00001FA02F21A40FB7922FA03F3012B14D16D
:1003B000FB79104A52F82330002B04D0FB790D4A08
:1003C00052F8233098470A4B5B69FA79012101FA08
:1003D00002F21146064A0B435361FB790133FB716C
:1003E000FB790F2BD8D900BF0837BD4680BD00BFB1
:1003F000000401404000002080B483B000AF0346F9
:10040000FB710B46BB7113467B71FB79012B3ED010
:10041000022B75D0002B00D0B0E0BB79072B17D88A
:10042000594B1B68BA7992000F2101FA02F2D243AC
:100430001146554A0B401360534B1B687979BA79C2
:10044000920001FA02F211464F4A0B43136090E00A
:10045000BB790F2B00F28D80BB79083BBB714A4BF7
:100460005B68BA7992000F2101FA02F2D243114679
:10047000454A0B405360444B5B687979BA799200E6
:1004800001FA02F21146404A0B43536071E0BB7916
:10049000072B17D83D4B1B68BA7992000F2101FA40
:1004A00002F2D2431146394A0B401360374B1B68A6
:1004B0007979BA79920001FA02F21146334A0B4374
:1004C000136058E0BB790F2B55D8BB79083BBB7143
:1004D0002E4B5B68BA7992000F2101FA02F2D243E7
:1004E00011462A4A0B405360284B5B687979BA79E8
:1004F000920001FA02F21146244A0B4353603AE09B
:10050000BB79072B17D8224B1B68BA7992000F21B1
:1005100001FA02F2D24311461D4A0B4013601C4BF4
:100520001B687979BA79920001FA02F21146184AE9
:100530000B43136021E0BB790F2B1ED8BB79083B1E
:10054000BB71134B5B68BA7992000F2101FA02F27A
:10055000D24311460E4A0B4053600D4B5B687979CC
:10056000BA79920001FA02F21146094A0B4353602C
:1005700003E000BF02E000BF00E000BF00BF0C3797
:10058000BD4680BC704700BF00080140000C014020
:100590000010014080B483B000AF0346FB710B46EE
:1005A000BB7113467B71FB79012B21D0022B3CD010
:1005B000002B00D05BE07B79012B0AD12E4BDB684E
:1005C000BA79012101FA02F211462B4A0B43D3609A
:1005D00048E07B79002B45D1274BDB68BA790121B4
:1005E00001FA02F2D2431146234A0B40D36039E0AC
:1005F0007B79012B0AD1214BDB68BA79012101FA01
:1006000002F211461D4A0B43D3602DE07B79002B8B
:100610002AD11A4BDB68BA79012101FA02F2D243DE
:100620001146164A0B40D3601EE07B79012B0AD19C
:10063000134BDB68BA79012101FA02F21146104A24
:100640000B43D36012E07B79002B0FD10C4BDB689E
:10065000BA79012101FA02F2D2431146084A0B404D
:10066000D36003E000BF02E000BF00E000BF00BFB6
:100670000C37BD4680BC704700080140000C0140AB
:100680000010014080B483B000AF03460A46FB71FE
:100690001346BB71FB79012B12D0022B1ED0002B0D
:1006A00000D02EE0BB790F2B26D8184BDB68BA7927
:1006B000012101FA02F21146144A4B40D3601BE0BB
:1006C000BB790F2B1AD8124BDB68BA79012101FADA
:1006D00002F211460E4A4B40D3600FE0BB790F2B5C
:1006E0000ED80C4BDB68BA79012101FA02F21146EF
:1006F000084A4B40D36003E000BF02E000BF00E0C7
:1007000000BF00BF0C37BD4680BC704700080140E9
:10071000000C01400010014080B483B000AF002302
:100720007B60154B5B68144A43F001035360124B26
:100730005B68114A23F0020353600F4B1B680E4A9B
:1007400043F48033136002E07B6801337B600A4B23
:100750001B6803F40033002B03D17B68074A9342E4
:10076000F2D9054B1B68044A23F40023136000BF31
:100770000C37BD4680BC7047001002409F860100C8
:1007800080B483B000AF03460A46FB711346BB71C9
:10079000FB79012B0FD0022B18D0002B00D020E0CA
:1007A000124B5B69BA79012101FA02F211460F4A34
:1007B0000B43536115E00D4BDB69BA79012101FA56
:1007C00002F21146094A0B43D3610AE0074B9B69C9
:1007D000BA79012101FA02F21146044A0B439361EE
:1007E00000BF00BF0C37BD4680BC70470010024000
:1007F00080B500AF024B1B68984700BF80BD00BFAB
:100800008000002080B483B000AF7860034A7B682A
:10081000136000BF0C37BD4680BC704780000020CD
:1008200080B400AF034B01221A6000BFBD4680BCFC
:10083000704700BF10E000E080B483B000AF786084
:10084000084A7B68013B5360064B00229A60054BC7
:100850001B68044A43F00103136000BF0C37BD4618
:1008600080BC704710E000E080B500AF0548FFF79E
:10087000C9FFFFF7D5FF4FF47A70FFF7DDFF00BF28
:1008800080BD00BF1109000880B485B000AFBA6018
:100890001A460346FB730B46BB811346FB80FA7B6B
:1008A0001A4913465B0013449B000B4404331B6836
:1008B000002B26D1FA7B154913465B0013449B009D
:1008C0000B44BA891A80FA7B104913465B00134423
:1008D0009B000B440433BA681A60FA7B0B49134639
:1008E0005B0013449B000B440833FA881A80FA7BA0
:1008F000064913465B0013449B000B440A33002255
:100900001A7000BF1437BD4680BC70471C00002021
:1009100080B582B000AF0023FB7156E0FA792E4912
:1009200013465B0013449B000B4404331B68002BED
:1009300048D0FA79284913465B0013449B000B44C6
:100940000A331B78002B3DD1FA79234913465B000B
:1009500013449B000B4408331B88002B1ED1FA79EB
:100960001D4913465B0013449B000B441B88FA7916
:10097000013B98B2184913465B0013449B000B449B
:10098000083302461A80FA79134913465B00134470
:100990009B000B4404331B68984713E0FA790E4917
:1009A00013465B0013449B000B4408331B88013B38
:1009B00098B2094913465B0013449B000B4408336B
:1009C00002461A80FB790133FB71FB79022BA5D912
:1009D00000BF0837BD4680BD1C00002080B500AFB9
:1009E000FFF79AFE04210220FFF7CAFEFFF7C0FBC3
:1009F00002220F210220FFF7FFFC02220E2102201B
:100A0000FFF7FAFC02220D210220FFF7F5FC00237C
:100A10000B4A4FF47A710020FFF736FF0023094A92
:100A20004FF4FA610120FFF72FFF0023064A40F63A
:100A3000B8310220FFF728FFFFF716FFFEE700BFDF
:100A40004D0A00085D0A00086D0A000880B500AF75
:100A50000F210220FFF716FE00BF80BD80B500AF5A
:100A60000D210220FFF70EFE00BF80BD80B500AF54
:100A70000E210220FFF706FE00BF80BD0D4885460F
:100A8000AFF300800C480D490D4A002302E0D45812
:100A9000C4500433C4188C42F9D30A4A0A4C0023C8
:100AA00001E013600432A242FBD300F011F8FFF71B
:100AB00095FFFEE70050002000000020000000200D
:100AC000380B00080000002084000020FEE7000032
:100AD00070B500250C4E0D4CA41BA410A54209D1E5
:100AE00000F01AF800250A4E0A4CA41BA410A542D7
:100AF00005D170BD56F8253098470135EEE756F818
:100B0000253098470135F2E7300B0008300B00081C
:100B1000300B0008340B0008F8B500BFF8BC08BC67
:100B20009E467047F8B500BFF8BC08BC9E467047AB
:040B30005501000863
:040B34003101000883
:0400000508000A7D68
:00000001FF
